{
  "contractName": "CoinFlip",
  "abi": [
    {
      "inputs": [],
      "stateMutability": "nonpayable",
      "type": "constructor"
    },
    {
      "anonymous": false,
      "inputs": [
        {
          "indexed": true,
          "internalType": "address",
          "name": "beneficiary",
          "type": "address"
        },
        {
          "indexed": false,
          "internalType": "uint256",
          "name": "amount",
          "type": "uint256"
        }
      ],
      "name": "FailedPayment",
      "type": "event"
    },
    {
      "anonymous": false,
      "inputs": [
        {
          "indexed": true,
          "internalType": "address",
          "name": "beneficiary",
          "type": "address"
        },
        {
          "indexed": false,
          "internalType": "uint256",
          "name": "amount",
          "type": "uint256"
        }
      ],
      "name": "Payment",
      "type": "event"
    },
    {
      "anonymous": false,
      "inputs": [
        {
          "indexed": false,
          "internalType": "uint256",
          "name": "reveal",
          "type": "uint256"
        }
      ],
      "name": "Reveal",
      "type": "event"
    },
    {
      "stateMutability": "payable",
      "type": "fallback",
      "payable": true
    },
    {
      "inputs": [],
      "name": "lockedInBets",
      "outputs": [
        {
          "internalType": "uint256",
          "name": "",
          "type": "uint256"
        }
      ],
      "stateMutability": "view",
      "type": "function",
      "constant": true
    },
    {
      "inputs": [],
      "name": "owner",
      "outputs": [
        {
          "internalType": "address",
          "name": "",
          "type": "address"
        }
      ],
      "stateMutability": "view",
      "type": "function",
      "constant": true
    },
    {
      "stateMutability": "payable",
      "type": "receive",
      "payable": true
    },
    {
      "inputs": [
        {
          "internalType": "address",
          "name": "beneficiary",
          "type": "address"
        },
        {
          "internalType": "uint256",
          "name": "withdrawAmount",
          "type": "uint256"
        }
      ],
      "name": "withdrawFunds",
      "outputs": [],
      "stateMutability": "nonpayable",
      "type": "function"
    },
    {
      "inputs": [],
      "name": "kill",
      "outputs": [],
      "stateMutability": "nonpayable",
      "type": "function"
    },
    {
      "inputs": [
        {
          "internalType": "uint8",
          "name": "betMask",
          "type": "uint8"
        }
      ],
      "name": "placeBet",
      "outputs": [],
      "stateMutability": "payable",
      "type": "function",
      "payable": true
    },
    {
      "inputs": [
        {
          "internalType": "uint8",
          "name": "seed",
          "type": "uint8"
        }
      ],
      "name": "revealResult",
      "outputs": [],
      "stateMutability": "nonpayable",
      "type": "function"
    },
    {
      "inputs": [],
      "name": "refundBet",
      "outputs": [],
      "stateMutability": "nonpayable",
      "type": "function"
    },
    {
      "inputs": [],
      "name": "checkHouseFund",
      "outputs": [
        {
          "internalType": "uint256",
          "name": "",
          "type": "uint256"
        }
      ],
      "stateMutability": "view",
      "type": "function",
      "constant": true
    }
  ],
  "bytecode": "0x608060405234801561001057600080fd5b50336000806101000a81548173ffffffffffffffffffffffffffffffffffffffff021916908373ffffffffffffffffffffffffffffffffffffffff16021790555061186a806100606000396000f3fe60806040526004361061007f5760003560e01c8063430468441161004e578063430468441461010a5780638da5cb5b14610126578063c107532914610151578063df88126f1461017a57610086565b806311ea8acb14610088578063172f82761461009f5780631e1871e9146100ca57806341c0e1b5146100f357610086565b3661008657005b005b34801561009457600080fd5b5061009d6101a5565b005b3480156100ab57600080fd5b506100b46102f4565b6040516100c19190611158565b60405180910390f35b3480156100d657600080fd5b506100f160048036038101906100ec9190610dd2565b61038a565b005b3480156100ff57600080fd5b506101086105b6565b005b610124600480360381019061011f9190610dd2565b6106c2565b005b34801561013257600080fd5b5061013b61095f565b6040516101489190610fdd565b60405180910390f35b34801561015d57600080fd5b5061017860048036038101906101739190610d96565b610983565b005b34801561018657600080fd5b5061018f610a6f565b60405161019c9190611158565b60405180910390f35b6000600260003373ffffffffffffffffffffffffffffffffffffffff1673ffffffffffffffffffffffffffffffffffffffff16815260200190815260200160002090504381600201541061022e576040517f08c379a000000000000000000000000000000000000000000000000000000000815260040161022590611038565b60405180910390fd5b6000816000015490508060001061027a576040517f08c379a0000000000000000000000000000000000000000000000000000000008152600401610271906110f8565b60405180910390fd5b60008260010160009054906101000a900460ff1690506102be8360030160019054906101000a900473ffffffffffffffffffffffffffffffffffffffff1683610a75565b60006102ca8383610b55565b905080600160008282546102de919061140d565b925050819055506102ee33610c2f565b50505050565b60003373ffffffffffffffffffffffffffffffffffffffff1660008054906101000a900473ffffffffffffffffffffffffffffffffffffffff1673ffffffffffffffffffffffffffffffffffffffff1614610384576040517f08c379a000000000000000000000000000000000000000000000000000000000815260040161037b90611018565b60405180910390fd5b47905090565b6000600260003373ffffffffffffffffffffffffffffffffffffffff1673ffffffffffffffffffffffffffffffffffffffff168152602001908152602001600020905060008160000154905060008260010160009054906101000a900460ff16905060008360020154905060008460030160019054906101000a900473ffffffffffffffffffffffffffffffffffffffff16905083600010610461576040517f08c379a0000000000000000000000000000000000000000000000000000000008152600401610458906110f8565b60405180910390fd5b4382106104a3576040517f08c379a000000000000000000000000000000000000000000000000000000000815260040161049a90611058565b60405180910390fd5b60008660ff16436104b4919061140d565b4083406040516020016104c8929190610fb1565b604051602081830303815290604052805190602001209050600060028260001c6104f291906114d2565b90506000806105018888610b55565b90508860030160009054906101000a900460ff1660ff168360026105259190611295565b16600014610531578091505b7f1747b48b6ade85d7dc97c0f523e0e780795930a468c01b18a51546791fdd3ac083600261055f9190611295565b60405161056c9190611158565b60405180910390a18160001015610588576105878583610a75565b5b806001600082825461059a919061140d565b925050819055506105aa33610c2f565b50505050505050505050565b3373ffffffffffffffffffffffffffffffffffffffff1660008054906101000a900473ffffffffffffffffffffffffffffffffffffffff1673ffffffffffffffffffffffffffffffffffffffff1614610644576040517f08c379a000000000000000000000000000000000000000000000000000000000815260040161063b90611018565b60405180910390fd5b600154600014610689576040517f08c379a0000000000000000000000000000000000000000000000000000000008152600401610680906110d8565b60405180910390fd5b60008054906101000a900473ffffffffffffffffffffffffffffffffffffffff1673ffffffffffffffffffffffffffffffffffffffff16ff5b600034905080662386f26fc10000111580156106e65750678ac7230489e800008111155b610725576040517f08c379a000000000000000000000000000000000000000000000000000000000815260040161071c90611118565b60405180910390fd5b8160ff16600010801561073c57506101008260ff16105b61077b576040517f08c379a000000000000000000000000000000000000000000000000000000000815260040161077290611078565b60405180910390fd5b6000600260003373ffffffffffffffffffffffffffffffffffffffff1673ffffffffffffffffffffffffffffffffffffffff1681526020019081526020016000209050600073ffffffffffffffffffffffffffffffffffffffff168160030160019054906101000a900473ffffffffffffffffffffffffffffffffffffffff1673ffffffffffffffffffffffffffffffffffffffff1614610851576040517f08c379a0000000000000000000000000000000000000000000000000000000008152600401610848906110b8565b60405180910390fd5b600061085c84610d1e565b9050828260000181905550808260010160006101000a81548160ff021916908360ff160217905550438260020181905550838260030160006101000a81548160ff021916908360ff160217905550338260030160016101000a81548173ffffffffffffffffffffffffffffffffffffffff021916908373ffffffffffffffffffffffffffffffffffffffff16021790555060006108f98483610b55565b9050806001600082825461090d9190611184565b925050819055504760015410610958576040517f08c379a000000000000000000000000000000000000000000000000000000000815260040161094f90611138565b60405180910390fd5b5050505050565b60008054906101000a900473ffffffffffffffffffffffffffffffffffffffff1681565b3373ffffffffffffffffffffffffffffffffffffffff1660008054906101000a900473ffffffffffffffffffffffffffffffffffffffff1673ffffffffffffffffffffffffffffffffffffffff1614610a11576040517f08c379a0000000000000000000000000000000000000000000000000000000008152600401610a0890611018565b60405180910390fd5b4760015482610a209190611184565b1115610a61576040517f08c379a0000000000000000000000000000000000000000000000000000000008152600401610a5890611098565b60405180910390fd5b610a6b8282610a75565b5050565b60015481565b8173ffffffffffffffffffffffffffffffffffffffff166108fc829081150290604051600060405180830381858888f1935050505015610b02578173ffffffffffffffffffffffffffffffffffffffff167fd4f43975feb89f48dd30cabbb32011045be187d1e11c8ea9faa43efc3528251982604051610af59190611158565b60405180910390a2610b51565b8173ffffffffffffffffffffffffffffffffffffffff167fac464fe4d3a86b9121261ac0a01dd981bfe0777c7c9d9c8f4473d31a9c0f9d2d82604051610b489190611158565b60405180910390a25b5050565b60008160ff166000108015610b6d575060028260ff16105b610bac576040517f08c379a0000000000000000000000000000000000000000000000000000000008152600401610ba390610ff8565b60405180910390fd5b60006064600585610bbd91906113b3565b610bc79190611211565b90506611c37937e08000811015610be3576611c37937e0800090505b6000600184610bf29190611441565b60ff166002610c019190611184565b85610c0c9190611211565b9050808286610c1b919061140d565b610c259190611184565b9250505092915050565b6000600260008373ffffffffffffffffffffffffffffffffffffffff1673ffffffffffffffffffffffffffffffffffffffff1681526020019081526020016000209050806000015460001015610c855750610d1b565b6000816000018190555060008160010160006101000a81548160ff021916908360ff1602179055506000816002018190555060008160030160006101000a81548160ff021916908360ff16021790555060008160030160016101000a81548173ffffffffffffffffffffffffffffffffffffffff021916908373ffffffffffffffffffffffffffffffffffffffff160217905550505b50565b6000805b8260ff1660001015610d4e576001831681610d3d91906111da565b905060018360ff16901c9250610d22565b80915050919050565b600081359050610d66816117ef565b92915050565b600081359050610d7b81611806565b92915050565b600081359050610d908161181d565b92915050565b60008060408385031215610da957600080fd5b6000610db785828601610d57565b9250506020610dc885828601610d6c565b9150509250929050565b600060208284031215610de457600080fd5b6000610df284828501610d81565b91505092915050565b610e0481611475565b82525050565b610e1b610e1682611487565b6114c8565b82525050565b6000610e2e601c83611173565b9150610e398261156e565b602082019050919050565b6000610e51602283611173565b9150610e5c82611597565b604082019050919050565b6000610e74603283611173565b9150610e7f826115e6565b604082019050919050565b6000610e97603683611173565b9150610ea282611635565b604082019050919050565b6000610eba601483611173565b9150610ec582611684565b602082019050919050565b6000610edd601383611173565b9150610ee8826116ad565b602082019050919050565b6000610f00601a83611173565b9150610f0b826116d6565b602082019050919050565b6000610f23603283611173565b9150610f2e826116ff565b604082019050919050565b6000610f46602383611173565b9150610f518261174e565b604082019050919050565b6000610f69601483611173565b9150610f748261179d565b602082019050919050565b6000610f8c601d83611173565b9150610f97826117c6565b602082019050919050565b610fab816114b1565b82525050565b6000610fbd8285610e0a565b602082019150610fcd8284610e0a565b6020820191508190509392505050565b6000602082019050610ff26000830184610dfb565b92915050565b6000602082019050818103600083015261101181610e21565b9050919050565b6000602082019050818103600083015261103181610e44565b9050919050565b6000602082019050818103600083015261105181610e67565b9050919050565b6000602082019050818103600083015261107181610e8a565b9050919050565b6000602082019050818103600083015261109181610ead565b9050919050565b600060208201905081810360008301526110b181610ed0565b9050919050565b600060208201905081810360008301526110d181610ef3565b9050919050565b600060208201905081810360008301526110f181610f16565b9050919050565b6000602082019050818103600083015261111181610f39565b9050919050565b6000602082019050818103600083015261113181610f5c565b9050919050565b6000602082019050818103600083015261115181610f7f565b9050919050565b600060208201905061116d6000830184610fa2565b92915050565b600082825260208201905092915050565b600061118f826114b1565b915061119a836114b1565b9250827fffffffffffffffffffffffffffffffffffffffffffffffffffffffffffffffff038211156111cf576111ce611503565b5b828201905092915050565b60006111e5826114bb565b91506111f0836114bb565b92508260ff0382111561120657611205611503565b5b828201905092915050565b600061121c826114b1565b9150611227836114b1565b92508261123757611236611532565b5b828204905092915050565b6000808291508390505b600185111561128c5780860481111561126857611267611503565b5b60018516156112775780820291505b808102905061128585611561565b945061124c565b94509492505050565b60006112a0826114b1565b91506112ab836114b1565b92506112d87fffffffffffffffffffffffffffffffffffffffffffffffffffffffffffffffff84846112e0565b905092915050565b6000826112f057600190506113ac565b816112fe57600090506113ac565b8160018114611314576002811461131e5761134d565b60019150506113ac565b60ff8411156113305761132f611503565b5b8360020a91508482111561134757611346611503565b5b506113ac565b5060208310610133831016604e8410600b84101617156113825782820a90508381111561137d5761137c611503565b5b6113ac565b61138f8484846001611242565b925090508184048111156113a6576113a5611503565b5b81810290505b9392505050565b60006113be826114b1565b91506113c9836114b1565b9250817fffffffffffffffffffffffffffffffffffffffffffffffffffffffffffffffff048311821515161561140257611401611503565b5b828202905092915050565b6000611418826114b1565b9150611423836114b1565b92508282101561143657611435611503565b5b828203905092915050565b600061144c826114bb565b9150611457836114bb565b92508282101561146a57611469611503565b5b828203905092915050565b600061148082611491565b9050919050565b6000819050919050565b600073ffffffffffffffffffffffffffffffffffffffff82169050919050565b6000819050919050565b600060ff82169050919050565b6000819050919050565b60006114dd826114b1565b91506114e8836114b1565b9250826114f8576114f7611532565b5b828206905092915050565b7f4e487b7100000000000000000000000000000000000000000000000000000000600052601160045260246000fd5b7f4e487b7100000000000000000000000000000000000000000000000000000000600052601260045260246000fd5b60008160011c9050919050565b7f50726f626162696c697479206973206f7574206f662072616e67652e00000000600082015250565b7f4f6e6c79206f776e65722063616e2063616c6c20746869732066756e6374696f60008201527f6e2e000000000000000000000000000000000000000000000000000000000000602082015250565b7f726566756e6442657420696e207468652073616d6520626c6f636b206173207060008201527f6c6163654265742c206f72206265666f72650000000000000000000000000000602082015250565b7f72657665616c526573756c7420696e207468652073616d6520626c6f636b206160008201527f7320706c6163654265742c206f72206265666f72652e00000000000000000000602082015250565b7f4d61736b2073686f756c64206265203820626974000000000000000000000000600082015250565b7f6c61676572207468656e2062616c616e63652e00000000000000000000000000600082015250565b7f4265742073686f756c6420626520656d7074792073746174652e000000000000600082015250565b7f416c6c20626574732073686f756c642062652070726f6365737365642062656660008201527f6f72652073656c662d64657374727563742e0000000000000000000000000000602082015250565b7f4265742073686f756c6420626520696e20616e2027616374697665272073746160008201527f74652e0000000000000000000000000000000000000000000000000000000000602082015250565b7f416d6f756e74206973206f7574206f6620616765000000000000000000000000600082015250565b7f43616e6e6f74206166666f726420746f2070617920746865206265742e000000600082015250565b6117f881611475565b811461180357600080fd5b50565b61180f816114b1565b811461181a57600080fd5b50565b611826816114bb565b811461183157600080fd5b5056fea2646970667358221220d78ecf99870e80d5d682d86975886d231c91b808c62de2be837745a6d553a28864736f6c63430008030033",
  "immutableReferences": {},
  "source": "// SPDX-License-Identifier: MIT\npragma solidity >=0.6.0 <0.9.0;\n\ncontract CoinFlip {\n    uint constant MAX_CASE = 2;\n    uint constant MIN_BET = 0.01 ether;\n    uint constant MAX_BET = 10 ether;\n    uint constant FLIP_FEE_PERCENT = 5;\n    uint constant FLIP_MIN_FEE = 0.005 ether;\n\n    address public owner;\n    uint public lockedInBets;\n\n    struct Bet {\n        uint amount;\n        uint8 numOfBetBit;\n        uint placeBlockNumber;\n        uint8 mask;\n        address gambler;\n    }\n\n    mapping (address => Bet) bets;\n\n    event Reveal(uint reveal);\n    event Payment(address indexed beneficiary, uint amount);\n    event FailedPayment(address indexed beneficiary, uint amount);\n\n    constructor() {\n        owner = msg.sender;\n    }\n\n    modifier onlyOwner {\n        require (owner == msg.sender, \"Only owner can call this function.\");\n        _;\n    }\n\n    function withdrawFunds(address beneficiary, uint withdrawAmount) external onlyOwner {\n        require (withdrawAmount + lockedInBets <= address(this).balance, \"lager then balance.\");\n        sendFunds(beneficiary, withdrawAmount);\n    }\n\n    function sendFunds(address beneficiary, uint amount) private {\n        if (payable(beneficiary).send(amount)) {\n            emit Payment(beneficiary, amount);\n        } else {\n            emit FailedPayment(beneficiary, amount);\n        }\n    }\n\n    function kill() external onlyOwner {\n        require (0 == lockedInBets, \"All bets should be processed before self-destruct.\");\n        selfdestruct(payable(owner));\n    }\n\n    fallback () external payable {}\n\n    receive () external payable {}\n\n    function placeBet(uint8 betMask) external payable {\n        uint amount = msg.value;\n\n        require(MIN_BET <= amount && amount <= MAX_BET, \"Amount is out of age\");\n        require(0 < betMask && betMask < 256, \"Mask should be 8 bit\");\n\n        Bet storage bet = bets[msg.sender];\n\n        require(bet.gambler == address(0), \"Bet should be empty state.\");\n\n        uint8 numOfBetBit = countBits(betMask);\n\n        bet.amount = amount;\n        bet.numOfBetBit = numOfBetBit;\n        bet.placeBlockNumber = block.number;\n        bet.mask = betMask;\n        bet.gambler = msg.sender;\n\n        uint possibleWinningAmount = getWinningAmount(amount, numOfBetBit);\n        lockedInBets += possibleWinningAmount;\n\n        require(lockedInBets < address(this).balance, \"Cannot afford to pay the bet.\");\n    }\n\n    function getWinningAmount(uint amount, uint8 numOfBetBit) private pure returns (uint winningAmount) {\n        require(0 < numOfBetBit && numOfBetBit < MAX_CASE, \"Probability is out of range.\");\n\n        uint flipFee = amount * FLIP_FEE_PERCENT / 100;\n        if (flipFee < FLIP_MIN_FEE) {\n            flipFee = FLIP_MIN_FEE;\n        }\n\n        uint reward = amount / (MAX_CASE + (numOfBetBit - 1));\n\n        winningAmount = (amount - flipFee) + reward;\n    }\n\n\n    function revealResult(uint8 seed) external {\n        Bet storage bet = bets[msg.sender];\n        uint amount = bet.amount;\n        uint8 numOfBetBit = bet.numOfBetBit;\n        uint placeBlockNumber = bet.placeBlockNumber;\n        address gambler = bet.gambler;\n\n        require(0 < amount, \"Bet should be in an 'active' state.\");\n        require(placeBlockNumber < block.number, \"revealResult in the same block as placeBet, or before.\");\n\n        bytes32 random = keccak256(abi.encodePacked(blockhash(block.number-seed), blockhash(placeBlockNumber)));\n        uint reveal = uint(random) % MAX_CASE;\n\n        uint winningAmount = 0;\n        uint possibleWinningAmount = 0;\n        possibleWinningAmount = getWinningAmount(amount, numOfBetBit);\n\n        if (0 != (2 ** reveal) & bet.mask) {\n            winningAmount = possibleWinningAmount;\n        }\n\n        emit Reveal(2 ** reveal);\n\n        if (0 < winningAmount) {\n            sendFunds(gambler, winningAmount);\n        }\n\n        lockedInBets -= possibleWinningAmount;\n        clearBet(msg.sender);\n    }\n\n    function clearBet(address player) private {\n        Bet storage bet = bets[player];\n\n        if (0 < bet.amount) return;\n\n        bet.amount = 0;\n        bet.numOfBetBit = 0;\n        bet.placeBlockNumber = 0;\n        bet.mask = 0;\n        bet.gambler = address(0);\n    }\n\n    function refundBet() external {\n        Bet storage bet = bets[msg.sender];\n        require(bet.placeBlockNumber < block.number, \"refundBet in the same block as placeBet, or before\");\n\n        uint amount = bet.amount;\n        require(0 < amount, \"Bet should be in an 'active' state.\");\n\n        uint8 numOfBetBit = bet.numOfBetBit;\n\n        sendFunds(bet.gambler, amount);\n\n        uint possibleWinningAmount = getWinningAmount(amount, numOfBetBit);\n        lockedInBets -= possibleWinningAmount;\n\n        clearBet(msg.sender);\n    }\n\n    function checkHouseFund() public view onlyOwner returns(uint) {\n        return address(this).balance;\n    }\n\n    function countBits(uint8 _num) internal pure returns(uint8) {\n        uint8 count;\n        while(0 < _num) {\n            count += _num & 1;\n            _num >>= 1;\n        }\n        return count;\n    }\n}\n",
  "sourcePath": "/Users/eastbright/Desktop/work/ethereum-coin-flip/contracts/CoinFlip.sol",
  "compiler": {
    "name": "solc",
    "version": "0.8.3+commit.8d00100c.Emscripten.clang"
  },
  "schemaVersion": "3.3.4",
  "updatedAt": "2021-04-04T08:49:16.696Z",
  "networkType": "ethereum",
  "devdoc": {
    "kind": "dev",
    "methods": {},
    "version": 1
  },
  "userdoc": {
    "kind": "user",
    "methods": {},
    "version": 1
  }
}